{
  "contractName": "PassportManager",
  "abi": [
    {
      "anonymous": false,
      "inputs": [
        {
          "indexed": false,
          "internalType": "address",
          "name": "passport_id",
          "type": "address"
        },
        {
          "indexed": false,
          "internalType": "bytes32",
          "name": "hashed_file",
          "type": "bytes32"
        }
      ],
      "name": "AddedIDFileToPassport",
      "type": "event"
    },
    {
      "anonymous": false,
      "inputs": [
        {
          "indexed": false,
          "internalType": "address",
          "name": "passport_id",
          "type": "address"
        },
        {
          "indexed": false,
          "internalType": "address",
          "name": "by",
          "type": "address"
        }
      ],
      "name": "PassportInitialized",
      "type": "event"
    },
    {
      "inputs": [
        {
          "internalType": "address",
          "name": "",
          "type": "address"
        }
      ],
      "name": "user_passports",
      "outputs": [
        {
          "internalType": "string",
          "name": "flair_name",
          "type": "string"
        },
        {
          "internalType": "address",
          "name": "controller",
          "type": "address"
        }
      ],
      "stateMutability": "view",
      "type": "function",
      "constant": true
    },
    {
      "inputs": [
        {
          "internalType": "address",
          "name": "",
          "type": "address"
        }
      ],
      "name": "user_passports_LUT",
      "outputs": [
        {
          "internalType": "address",
          "name": "",
          "type": "address"
        }
      ],
      "stateMutability": "view",
      "type": "function",
      "constant": true
    },
    {
      "inputs": [
        {
          "internalType": "string",
          "name": "nickname",
          "type": "string"
        }
      ],
      "name": "initPassport",
      "outputs": [
        {
          "internalType": "string",
          "name": "",
          "type": "string"
        },
        {
          "internalType": "address",
          "name": "",
          "type": "address"
        }
      ],
      "stateMutability": "nonpayable",
      "type": "function"
    },
    {
      "inputs": [
        {
          "internalType": "address",
          "name": "passport_id",
          "type": "address"
        },
        {
          "internalType": "bytes32",
          "name": "id_file",
          "type": "bytes32"
        }
      ],
      "name": "addIDFileToPassport",
      "outputs": [
        {
          "internalType": "address",
          "name": "",
          "type": "address"
        },
        {
          "internalType": "bytes32",
          "name": "",
          "type": "bytes32"
        },
        {
          "internalType": "uint256",
          "name": "",
          "type": "uint256"
        }
      ],
      "stateMutability": "nonpayable",
      "type": "function"
    }
  ],
  "bytecode": "0x608060405234801561001057600080fd5b50610f22806100206000396000f3fe608060405234801561001057600080fd5b506004361061004c5760003560e01c806301fc0cda146100515780635225587d146100825780637fff19b3146100b2578063e8dcf495146100e4575b600080fd5b61006b6004803603810190610066919061095c565b610115565b604051610079929190610b75565b60405180910390f35b61009c6004803603810190610097919061095c565b6101e1565b6040516100a99190610ad1565b60405180910390f35b6100cc60048036038101906100c79190610985565b610214565b6040516100db93929190610b3e565b60405180910390f35b6100fe60048036038101906100f991906109c1565b610423565b60405161010c929190610b75565b60405180910390f35b600060205280600052604060002060009150905080600001805461013890610cff565b80601f016020809104026020016040519081016040528092919081815260200182805461016490610cff565b80156101b15780601f10610186576101008083540402835291602001916101b1565b820191906000526020600020905b81548152906001019060200180831161019457829003601f168201915b5050505050908060010160009054906101000a900473ffffffffffffffffffffffffffffffffffffffff16905082565b60016020528060005260406000206000915054906101000a900473ffffffffffffffffffffffffffffffffffffffff1681565b6000806000806000808773ffffffffffffffffffffffffffffffffffffffff1673ffffffffffffffffffffffffffffffffffffffff1681526020019081526020016000209050610263866106e3565b61026c57600080fd5b3373ffffffffffffffffffffffffffffffffffffffff168160010160009054906101000a900473ffffffffffffffffffffffffffffffffffffffff1673ffffffffffffffffffffffffffffffffffffffff16146102fe576040517f08c379a00000000000000000000000000000000000000000000000000000000081526004016102f590610ba5565b60405180910390fd5b60008160030160008781526020019081526020016000205414610356576040517f08c379a000000000000000000000000000000000000000000000000000000000815260040161034d90610bc5565b60405180910390fd5b84816003016000878152602001908152602001600020819055506001816002016000878152602001908152602001600020819055507fac19b6b2360eaf3f39bdc031d4b5cebd42ca94cf107c8ddc6710580bbb70bc2a86866040516103bc929190610b15565b60405180910390a18060010160009054906101000a900473ffffffffffffffffffffffffffffffffffffffff168160030160008781526020019081526020016000205482600201600088815260200190815260200160002054935093509350509250925092565b60606000610430336106e3565b15610470576040517f08c379a000000000000000000000000000000000000000000000000000000000815260040161046790610be5565b60405180910390fd5b60008060003373ffffffffffffffffffffffffffffffffffffffff1673ffffffffffffffffffffffffffffffffffffffff1681526020019081526020016000209050838160000190805190602001906104ca929190610827565b50338160010160006101000a81548173ffffffffffffffffffffffffffffffffffffffff021916908373ffffffffffffffffffffffffffffffffffffffff16021790555033600160003373ffffffffffffffffffffffffffffffffffffffff1673ffffffffffffffffffffffffffffffffffffffff16815260200190815260200160002060006101000a81548173ffffffffffffffffffffffffffffffffffffffff021916908373ffffffffffffffffffffffffffffffffffffffff1602179055507f9e9b7fab58f1908bd173162b5fd76a03a03a7bf108ee47950f948911ceb8bf63600160003373ffffffffffffffffffffffffffffffffffffffff1673ffffffffffffffffffffffffffffffffffffffff16815260200190815260200160002060009054906101000a900473ffffffffffffffffffffffffffffffffffffffff163360405161061c929190610aec565b60405180910390a1806000018160010160009054906101000a900473ffffffffffffffffffffffffffffffffffffffff1681805461065990610cff565b80601f016020809104026020016040519081016040528092919081815260200182805461068590610cff565b80156106d25780601f106106a7576101008083540402835291602001916106d2565b820191906000526020600020905b8154815290600101906020018083116106b557829003601f168201915b505050505091509250925050915091565b60008073ffffffffffffffffffffffffffffffffffffffff16600160008473ffffffffffffffffffffffffffffffffffffffff1673ffffffffffffffffffffffffffffffffffffffff16815260200190815260200160002060009054906101000a900473ffffffffffffffffffffffffffffffffffffffff1673ffffffffffffffffffffffffffffffffffffffff161461081d5760008060008473ffffffffffffffffffffffffffffffffffffffff1673ffffffffffffffffffffffffffffffffffffffff1681526020019081526020016000209050600073ffffffffffffffffffffffffffffffffffffffff168160010160009054906101000a900473ffffffffffffffffffffffffffffffffffffffff1673ffffffffffffffffffffffffffffffffffffffff161461081b576001915050610822565b505b600090505b919050565b82805461083390610cff565b90600052602060002090601f016020900481019282610855576000855561089c565b82601f1061086e57805160ff191683800117855561089c565b8280016001018555821561089c579182015b8281111561089b578251825591602001919060010190610880565b5b5090506108a991906108ad565b5090565b5b808211156108c65760008160009055506001016108ae565b5090565b60006108dd6108d884610c2a565b610c05565b9050828152602081018484840111156108f557600080fd5b610900848285610cbd565b509392505050565b60008135905061091781610ebe565b92915050565b60008135905061092c81610ed5565b92915050565b600082601f83011261094357600080fd5b81356109538482602086016108ca565b91505092915050565b60006020828403121561096e57600080fd5b600061097c84828501610908565b91505092915050565b6000806040838503121561099857600080fd5b60006109a685828601610908565b92505060206109b78582860161091d565b9150509250929050565b6000602082840312156109d357600080fd5b600082013567ffffffffffffffff8111156109ed57600080fd5b6109f984828501610932565b91505092915050565b610a0b81610c77565b82525050565b610a1a81610c89565b82525050565b6000610a2b82610c5b565b610a358185610c66565b9350610a45818560208601610ccc565b610a4e81610dc0565b840191505092915050565b6000610a66603283610c66565b9150610a7182610dd1565b604082019050919050565b6000610a89602e83610c66565b9150610a9482610e20565b604082019050919050565b6000610aac602a83610c66565b9150610ab782610e6f565b604082019050919050565b610acb81610cb3565b82525050565b6000602082019050610ae66000830184610a02565b92915050565b6000604082019050610b016000830185610a02565b610b0e6020830184610a02565b9392505050565b6000604082019050610b2a6000830185610a02565b610b376020830184610a11565b9392505050565b6000606082019050610b536000830186610a02565b610b606020830185610a11565b610b6d6040830184610ac2565b949350505050565b60006040820190508181036000830152610b8f8185610a20565b9050610b9e6020830184610a02565b9392505050565b60006020820190508181036000830152610bbe81610a59565b9050919050565b60006020820190508181036000830152610bde81610a7c565b9050919050565b60006020820190508181036000830152610bfe81610a9f565b9050919050565b6000610c0f610c20565b9050610c1b8282610d31565b919050565b6000604051905090565b600067ffffffffffffffff821115610c4557610c44610d91565b5b610c4e82610dc0565b9050602081019050919050565b600081519050919050565b600082825260208201905092915050565b6000610c8282610c93565b9050919050565b6000819050919050565b600073ffffffffffffffffffffffffffffffffffffffff82169050919050565b6000819050919050565b82818337600083830152505050565b60005b83811015610cea578082015181840152602081019050610ccf565b83811115610cf9576000848401525b50505050565b60006002820490506001821680610d1757607f821691505b60208210811415610d2b57610d2a610d62565b5b50919050565b610d3a82610dc0565b810181811067ffffffffffffffff82111715610d5957610d58610d91565b5b80604052505050565b7f4e487b7100000000000000000000000000000000000000000000000000000000600052602260045260246000fd5b7f4e487b7100000000000000000000000000000000000000000000000000000000600052604160045260246000fd5b6000601f19601f8301169050919050565b7f53656e6465722f636f6e74726f6c6c6572206d69736d61746368207768656e2060008201527f616363657373696e672070617373706f72740000000000000000000000000000602082015250565b7f49442046696c6520697320616c726561647920636f6e7461696e656420696e2060008201527f746869732050617373706f727421000000000000000000000000000000000000602082015250565b7f596f757220557365722050617373706f727420697320616c726561647920696e60008201527f697469616c697a65642100000000000000000000000000000000000000000000602082015250565b610ec781610c77565b8114610ed257600080fd5b50565b610ede81610c89565b8114610ee957600080fd5b5056fea26469706673582212201daa19b564360dfaa43a1c414d6632a202dca9f4a3f5bf4ef2c278141642ad3e64736f6c63430008020033",
  "immutableReferences": {},
  "source": "/* SPDX-License-Identifier: GPL-3.0-or-later\n * Author: Dimitrios Sfounis, for Bluechain Social Cooperative Enterprise, Athens (GR), February 2021\n * Website: https://bluechain.tech\n * Project: European Self-Sovereign Identity on blockchain, intended for electronic Health records,\n *      Funded under the European Cohesion Fund's \"Vouchers for Innovation\" programme.\n */\npragma solidity >=0.8.0 <0.9;\n\ncontract PassportManager {\n    /* Basic implementation of a user's identity: a Passport! */\n    struct Passport {\n        string flair_name; //User nickname. It's optional.\n        //The controller (owner) of this passport instance.\n        //Initially, it's the first user/deployer. This can change later on.\n        address controller;\n        //the main workhorse of this struct. This is a hashmap of\n        //key-value pairs of keccak256 hashes of the (string)sha256 checksum of any identity file (say, a PDF certificate)\n        //and a trust-score stored as a simple integer. The more people have voted to trust this particular document of your passport,\n        //the higher the score is. Simple, right? Probably not...\n        //bytes32 because keccak256, through the web3.eth lib, always produces 32 bytes (256 bits) of output.\n        mapping(bytes32 => uint) identity_files;\n        //Lookup table for the previous mapping, just so we don't ever have to deal with orphaned values.\n        //#NOTE: If you self-destruct this contract, be sure to iterate over `identity_files` and delete all keys using this Lookup Table.\n        mapping(bytes32 => bytes32) identity_files_LUT;\n        //Also this for easy, O(1) search of whether an address is here or not: //#NOTE: DEPRECATED in v0.2.0\n        //mapping(bytes32 => bool) identity_files_LUT_Bool;\n        //Delegates of this passport and its contained identity files, able to control it too.\n        //Disabling this for now, we'll see if we can circumvent delegation functionality as defined in the CALYSPSO paper by Kokkoris-Kogias.\n        //address[] delegates;\n    }\n    \n    /* Debugging Events! Respect these, they'll save you headache(s) */\n    event PassportInitialized(address passport_id, address by);\n    event AddedIDFileToPassport(address passport_id, bytes32 hashed_file);\n    \n    //The main database of our user IDs. This hashtable stores key-value pairs of\n    //address to (struct Passport) objects belonging to this smart contract's users.\n    //bytes32 because keccak256, through the web3 library, always produces 32 bytes (256 bits) of output.\n    //the public attribute just gives it an automatic getter. However, the getter only returns a tuple containing all atomic fields,\n    //and not the actual data structure.\n    mapping(address => Passport) public user_passports;\n    //And the associated lookup table, for quick lookup:\n    mapping(address => address) public user_passports_LUT;\n    \n    /* Helper function to check if a user has initialized/created a Passport before */\n    function hasInitializedPassport(address addr) private view returns (bool) {\n        //All these checks cumulatively mean that a passport has been properly initialized\n        if(user_passports_LUT[addr] != address(0)){\n            Passport storage p = user_passports[addr];\n            if(p.controller != address(0)){\n                return true;\n            }\n        }\n        return false;\n    }\n\n    function initPassport(string memory nickname) public returns (string memory, address) {\n        //As taken by the Solidity docs:\n        //We cannot use \"Passport[campaignID] = Passport(beneficiary, goal, 0, 0)\"\n        //because the RHS creates a memory-struct \"Passport\" that contains a mapping.\n        require(!(hasInitializedPassport(msg.sender)), \"Your User Passport is already initialized!\");\n        Passport storage p = user_passports[msg.sender];\n        p.flair_name = nickname;\n        p.controller = msg.sender;\n        //Mark passport as initialized, and emit the event.\n        user_passports_LUT[msg.sender] = msg.sender;\n        emit PassportInitialized(user_passports_LUT[msg.sender], msg.sender);\n        return (p.flair_name, p.controller);\n    }\n    \n    function addIDFileToPassport(address passport_id, bytes32 id_file) public returns (address, bytes32, uint) {\n        Passport storage p = user_passports[passport_id];\n        require(hasInitializedPassport(passport_id));\n        require(p.controller == msg.sender, \"Sender/controller mismatch when accessing passport\");\n        require(p.identity_files_LUT[id_file] == \"\", \"ID File is already contained in this Passport!\");\n        p.identity_files_LUT[id_file] = id_file;\n        //trust-score == 1 means we've self-added this file and only us do trust it. In other words, this is a new, self-trusted-only doc.\n        //#TODO: There's probably a better way to do this other than using magic numbers...\n        p.identity_files[id_file] = 1;\n        //Return all these for debugging and testing purposes. It's a tuple of (controller_address, identity_file_byte32hash, trust_score).\n        emit AddedIDFileToPassport(passport_id, id_file);\n        return (p.controller, p.identity_files_LUT[id_file], p.identity_files[id_file]);\n    }\n    \n    /* TODO 1: We need a voting function, to play with trust_scores of stored Passport documents */\n    /* TODO 2: We need a function to export DID documents and Verifiable Claims as per specification format. Possibly a view function, so it doesn't burn up gas */\n    /* TODO 3: We need some failsafe against Orphaned Passports... */\n    /* TODO 4: Currently, trust_scores of documents are handled like magic numbers. This is generally an anti-pattern, let's look into a better way of doing this. */ \n}\n",
  "sourcePath": "/home/dimitris/Documents/Code/Bluechain_SSI_Truffle/bluechain_ssi/contracts/PassportManager.sol",
  "compiler": {
    "name": "solc",
    "version": "0.8.2+commit.661d1103.Emscripten.clang"
  },
  "schemaVersion": "3.3.4",
  "updatedAt": "2021-03-17T14:43:42.469Z",
  "networkType": "ethereum",
  "devdoc": {
    "kind": "dev",
    "methods": {},
    "version": 1
  },
  "userdoc": {
    "kind": "user",
    "methods": {},
    "version": 1
  }
}