{
  "contractName": "PassportManager",
  "abi": [
    {
      "anonymous": false,
      "inputs": [
        {
          "indexed": false,
          "internalType": "address",
          "name": "passport_id",
          "type": "address"
        },
        {
          "indexed": false,
          "internalType": "bytes32",
          "name": "hashed_file",
          "type": "bytes32"
        }
      ],
      "name": "AddedIDFileToPassport",
      "type": "event"
    },
    {
      "anonymous": false,
      "inputs": [
        {
          "indexed": false,
          "internalType": "address",
          "name": "passport_id",
          "type": "address"
        },
        {
          "indexed": false,
          "internalType": "address",
          "name": "by",
          "type": "address"
        }
      ],
      "name": "PassportInitialized",
      "type": "event"
    },
    {
      "anonymous": false,
      "inputs": [
        {
          "indexed": false,
          "internalType": "address",
          "name": "passport_id",
          "type": "address"
        },
        {
          "indexed": false,
          "internalType": "address",
          "name": "voter",
          "type": "address"
        }
      ],
      "name": "Voted",
      "type": "event"
    },
    {
      "inputs": [
        {
          "internalType": "address",
          "name": "",
          "type": "address"
        }
      ],
      "name": "user_passports",
      "outputs": [
        {
          "internalType": "string",
          "name": "flair_name",
          "type": "string"
        },
        {
          "internalType": "address",
          "name": "controller",
          "type": "address"
        }
      ],
      "stateMutability": "view",
      "type": "function",
      "constant": true
    },
    {
      "inputs": [
        {
          "internalType": "address",
          "name": "",
          "type": "address"
        }
      ],
      "name": "user_passports_LUT",
      "outputs": [
        {
          "internalType": "address",
          "name": "",
          "type": "address"
        }
      ],
      "stateMutability": "view",
      "type": "function",
      "constant": true
    },
    {
      "inputs": [
        {
          "internalType": "string",
          "name": "nickname",
          "type": "string"
        }
      ],
      "name": "initPassport",
      "outputs": [
        {
          "internalType": "string",
          "name": "",
          "type": "string"
        },
        {
          "internalType": "address",
          "name": "",
          "type": "address"
        }
      ],
      "stateMutability": "nonpayable",
      "type": "function"
    },
    {
      "inputs": [
        {
          "internalType": "address",
          "name": "passport_id",
          "type": "address"
        },
        {
          "internalType": "bytes32",
          "name": "id_file",
          "type": "bytes32"
        }
      ],
      "name": "addIDFileToPassport",
      "outputs": [
        {
          "internalType": "address",
          "name": "",
          "type": "address"
        },
        {
          "internalType": "bytes32",
          "name": "",
          "type": "bytes32"
        },
        {
          "internalType": "uint256",
          "name": "",
          "type": "uint256"
        }
      ],
      "stateMutability": "nonpayable",
      "type": "function"
    },
    {
      "inputs": [
        {
          "internalType": "address",
          "name": "passport_id",
          "type": "address"
        },
        {
          "internalType": "bytes32",
          "name": "doc_id",
          "type": "bytes32"
        }
      ],
      "name": "voteForDocInPassport",
      "outputs": [
        {
          "internalType": "address",
          "name": "",
          "type": "address"
        },
        {
          "internalType": "bytes32",
          "name": "",
          "type": "bytes32"
        },
        {
          "internalType": "uint256",
          "name": "",
          "type": "uint256"
        }
      ],
      "stateMutability": "nonpayable",
      "type": "function"
    }
  ],
  "bytecode": "0x608060405234801561001057600080fd5b506114fa806100206000396000f3fe608060405234801561001057600080fd5b50600436106100575760003560e01c806301fc0cda1461005c5780635225587d1461008d5780637fff19b3146100bd57806392695972146100ef578063e8dcf49514610121575b600080fd5b61007660048036038101906100719190610c67565b610152565b604051610084929190610f0c565b60405180910390f35b6100a760048036038101906100a29190610c67565b61021e565b6040516100b49190610e68565b60405180910390f35b6100d760048036038101906100d29190610c90565b610251565b6040516100e693929190610ed5565b60405180910390f35b61010960048036038101906101049190610c90565b610460565b60405161011893929190610ed5565b60405180910390f35b61013b60048036038101906101369190610ccc565b610650565b604051610149929190610f0c565b60405180910390f35b60006020528060005260406000206000915090508060000180546101759061116c565b80601f01602080910402602001604051908101604052809291908181526020018280546101a19061116c565b80156101ee5780601f106101c3576101008083540402835291602001916101ee565b820191906000526020600020905b8154815290600101906020018083116101d157829003601f168201915b5050505050908060010160009054906101000a900473ffffffffffffffffffffffffffffffffffffffff16905082565b60016020528060005260406000206000915054906101000a900473ffffffffffffffffffffffffffffffffffffffff1681565b6000806000806000808773ffffffffffffffffffffffffffffffffffffffff1673ffffffffffffffffffffffffffffffffffffffff16815260200190815260200160002090506102a086610910565b6102a957600080fd5b3373ffffffffffffffffffffffffffffffffffffffff168160010160009054906101000a900473ffffffffffffffffffffffffffffffffffffffff1673ffffffffffffffffffffffffffffffffffffffff161461033b576040517f08c379a000000000000000000000000000000000000000000000000000000000815260040161033290610f5c565b60405180910390fd5b60008160030160008781526020019081526020016000205414610393576040517f08c379a000000000000000000000000000000000000000000000000000000000815260040161038a90610fbc565b60405180910390fd5b84816003016000878152602001908152602001600020819055506001816002016000878152602001908152602001600020819055507fac19b6b2360eaf3f39bdc031d4b5cebd42ca94cf107c8ddc6710580bbb70bc2a86866040516103f9929190610eac565b60405180910390a18060010160009054906101000a900473ffffffffffffffffffffffffffffffffffffffff168160030160008781526020019081526020016000205482600201600088815260200190815260200160002054935093509350509250925092565b600080600061046e85610a54565b6104ad576040517f08c379a00000000000000000000000000000000000000000000000000000000081526004016104a490610f9c565b60405180910390fd5b3373ffffffffffffffffffffffffffffffffffffffff168573ffffffffffffffffffffffffffffffffffffffff16141561051c576040517f08c379a000000000000000000000000000000000000000000000000000000000815260040161051390610ffc565b60405180910390fd5b60008060008773ffffffffffffffffffffffffffffffffffffffff1673ffffffffffffffffffffffffffffffffffffffff16815260200190815260200160002090506105688186610afc565b6105a7576040517f08c379a000000000000000000000000000000000000000000000000000000000815260040161059e90610f3c565b60405180910390fd5b6105b033610910565b6105ef576040517f08c379a00000000000000000000000000000000000000000000000000000000081526004016105e690610f7c565b60405180910390fd5b600181600201600087815260200190815260200160002054610611919061108e565b81600201600087815260200190815260200160002081905550858582600201600088815260200190815260200160002054935093509350509250925092565b6060600061065d33610910565b1561069d576040517f08c379a000000000000000000000000000000000000000000000000000000000815260040161069490610fdc565b60405180910390fd5b60008060003373ffffffffffffffffffffffffffffffffffffffff1673ffffffffffffffffffffffffffffffffffffffff1681526020019081526020016000209050838160000190805190602001906106f7929190610b32565b50338160010160006101000a81548173ffffffffffffffffffffffffffffffffffffffff021916908373ffffffffffffffffffffffffffffffffffffffff16021790555033600160003373ffffffffffffffffffffffffffffffffffffffff1673ffffffffffffffffffffffffffffffffffffffff16815260200190815260200160002060006101000a81548173ffffffffffffffffffffffffffffffffffffffff021916908373ffffffffffffffffffffffffffffffffffffffff1602179055507f9e9b7fab58f1908bd173162b5fd76a03a03a7bf108ee47950f948911ceb8bf63600160003373ffffffffffffffffffffffffffffffffffffffff1673ffffffffffffffffffffffffffffffffffffffff16815260200190815260200160002060009054906101000a900473ffffffffffffffffffffffffffffffffffffffff1633604051610849929190610e83565b60405180910390a1806000018160010160009054906101000a900473ffffffffffffffffffffffffffffffffffffffff168180546108869061116c565b80601f01602080910402602001604051908101604052809291908181526020018280546108b29061116c565b80156108ff5780601f106108d4576101008083540402835291602001916108ff565b820191906000526020600020905b8154815290600101906020018083116108e257829003601f168201915b505050505091509250925050915091565b60008073ffffffffffffffffffffffffffffffffffffffff16600160008473ffffffffffffffffffffffffffffffffffffffff1673ffffffffffffffffffffffffffffffffffffffff16815260200190815260200160002060009054906101000a900473ffffffffffffffffffffffffffffffffffffffff1673ffffffffffffffffffffffffffffffffffffffff1614610a4a5760008060008473ffffffffffffffffffffffffffffffffffffffff1673ffffffffffffffffffffffffffffffffffffffff1681526020019081526020016000209050600073ffffffffffffffffffffffffffffffffffffffff168160010160009054906101000a900473ffffffffffffffffffffffffffffffffffffffff1673ffffffffffffffffffffffffffffffffffffffff1614610a48576001915050610a4f565b505b600090505b919050565b60008073ffffffffffffffffffffffffffffffffffffffff16600160008473ffffffffffffffffffffffffffffffffffffffff1673ffffffffffffffffffffffffffffffffffffffff16815260200190815260200160002060009054906101000a900473ffffffffffffffffffffffffffffffffffffffff1673ffffffffffffffffffffffffffffffffffffffff161415610af25760009050610af7565b600190505b919050565b60008060001b836003016000848152602001908152602001600020541415610b275760009050610b2c565b600190505b92915050565b828054610b3e9061116c565b90600052602060002090601f016020900481019282610b605760008555610ba7565b82601f10610b7957805160ff1916838001178555610ba7565b82800160010185558215610ba7579182015b82811115610ba6578251825591602001919060010190610b8b565b5b509050610bb49190610bb8565b5090565b5b80821115610bd1576000816000905550600101610bb9565b5090565b6000610be8610be384611041565b61101c565b905082815260208101848484011115610c0057600080fd5b610c0b84828561112a565b509392505050565b600081359050610c2281611496565b92915050565b600081359050610c37816114ad565b92915050565b600082601f830112610c4e57600080fd5b8135610c5e848260208601610bd5565b91505092915050565b600060208284031215610c7957600080fd5b6000610c8784828501610c13565b91505092915050565b60008060408385031215610ca357600080fd5b6000610cb185828601610c13565b9250506020610cc285828601610c28565b9150509250929050565b600060208284031215610cde57600080fd5b600082013567ffffffffffffffff811115610cf857600080fd5b610d0484828501610c3d565b91505092915050565b610d16816110e4565b82525050565b610d25816110f6565b82525050565b6000610d3682611072565b610d40818561107d565b9350610d50818560208601611139565b610d598161125c565b840191505092915050565b6000610d71602d8361107d565b9150610d7c8261126d565b604082019050919050565b6000610d9460328361107d565b9150610d9f826112bc565b604082019050919050565b6000610db7603f8361107d565b9150610dc28261130b565b604082019050919050565b6000610dda601b8361107d565b9150610de58261135a565b602082019050919050565b6000610dfd602e8361107d565b9150610e0882611383565b604082019050919050565b6000610e20602a8361107d565b9150610e2b826113d2565b604082019050919050565b6000610e4360438361107d565b9150610e4e82611421565b606082019050919050565b610e6281611120565b82525050565b6000602082019050610e7d6000830184610d0d565b92915050565b6000604082019050610e986000830185610d0d565b610ea56020830184610d0d565b9392505050565b6000604082019050610ec16000830185610d0d565b610ece6020830184610d1c565b9392505050565b6000606082019050610eea6000830186610d0d565b610ef76020830185610d1c565b610f046040830184610e59565b949350505050565b60006040820190508181036000830152610f268185610d2b565b9050610f356020830184610d0d565b9392505050565b60006020820190508181036000830152610f5581610d64565b9050919050565b60006020820190508181036000830152610f7581610d87565b9050919050565b60006020820190508181036000830152610f9581610daa565b9050919050565b60006020820190508181036000830152610fb581610dcd565b9050919050565b60006020820190508181036000830152610fd581610df0565b9050919050565b60006020820190508181036000830152610ff581610e13565b9050919050565b6000602082019050818103600083015261101581610e36565b9050919050565b6000611026611037565b9050611032828261119e565b919050565b6000604051905090565b600067ffffffffffffffff82111561105c5761105b61122d565b5b6110658261125c565b9050602081019050919050565b600081519050919050565b600082825260208201905092915050565b600061109982611120565b91506110a483611120565b9250827fffffffffffffffffffffffffffffffffffffffffffffffffffffffffffffffff038211156110d9576110d86111cf565b5b828201905092915050565b60006110ef82611100565b9050919050565b6000819050919050565b600073ffffffffffffffffffffffffffffffffffffffff82169050919050565b6000819050919050565b82818337600083830152505050565b60005b8381101561115757808201518184015260208101905061113c565b83811115611166576000848401525b50505050565b6000600282049050600182168061118457607f821691505b60208210811415611198576111976111fe565b5b50919050565b6111a78261125c565b810181811067ffffffffffffffff821117156111c6576111c561122d565b5b80604052505050565b7f4e487b7100000000000000000000000000000000000000000000000000000000600052601160045260246000fd5b7f4e487b7100000000000000000000000000000000000000000000000000000000600052602260045260246000fd5b7f4e487b7100000000000000000000000000000000000000000000000000000000600052604160045260246000fd5b6000601f19601f8301169050919050565b7f446f63756d656e7420646f65736e277420657869737420696e2073706563696660008201527f6965642050617373706f72742100000000000000000000000000000000000000602082015250565b7f53656e6465722f636f6e74726f6c6c6572206d69736d61746368207768656e2060008201527f616363657373696e672070617373706f72740000000000000000000000000000602082015250565b7f596f75206861766520746f206861766520616e2061637469766520506173737060008201527f6f727420796f757273656c6620746f20766f7465206f6e206f74686572732100602082015250565b7f50617373706f72745f696420646f6573206e6f74206578697374210000000000600082015250565b7f49442046696c6520697320616c726561647920636f6e7461696e656420696e2060008201527f746869732050617373706f727421000000000000000000000000000000000000602082015250565b7f596f757220557365722050617373706f727420697320616c726561647920696e60008201527f697469616c697a65642100000000000000000000000000000000000000000000602082015250565b7f596f752063616e277420766f7465206f6e207468652074727573742073636f7260008201527f65206f6620796f7572206f776e2050617373706f7274277320646f63756d656e60208201527f7473210000000000000000000000000000000000000000000000000000000000604082015250565b61149f816110e4565b81146114aa57600080fd5b50565b6114b6816110f6565b81146114c157600080fd5b5056fea2646970667358221220ef2a6d025ffdb4bb8a55908ed8b9dc058fa2eb0ef7870e22951cff3d8731160564736f6c63430008020033",
  "immutableReferences": {},
  "source": "/* SPDX-License-Identifier: GPL-3.0-or-later\n * Author: Dimitrios Sfounis, for Bluechain Social Cooperative Enterprise, Athens (GR), February 2021\n * Website: https://bluechain.tech\n * Project: European Self-Sovereign Identity on blockchain, intended for electronic Health records,\n *      Funded under the European Cohesion Fund's \"Vouchers for Innovation\" programme.\n */\npragma solidity >=0.8.0 <0.9;\n\ncontract PassportManager {\n    /* Basic implementation of a user's identity: a Passport! */\n    struct Passport {\n        string flair_name; //User nickname. It's optional.\n        //The controller (owner) of this passport instance.\n        //Initially, it's the first user/deployer. This can change later on.\n        address controller;\n        //the main workhorse of this struct. This is a hashmap of\n        //key-value pairs of keccak256 hashes of the (string)sha256 checksum of any identity file (say, a PDF certificate)\n        //and a trust-score stored as a simple integer. The more people have voted to trust this particular document of your passport,\n        //the higher the score is. Simple, right? Probably not...\n        //bytes32 because keccak256, through the web3.eth lib, always produces 32 bytes (256 bits) of output.\n        mapping(bytes32 => uint) identity_files;\n        //Lookup table for the previous mapping, just so we don't ever have to deal with orphaned values.\n        //#NOTE: If you self-destruct this contract, be sure to iterate over `identity_files` and delete all keys using this Lookup Table.\n        mapping(bytes32 => bytes32) identity_files_LUT;\n        //Also this helps for easy, O(1) search of whether an address is here or not: //#NOTE: DEPRECATED in v0.2.0\n        //mapping(bytes32 => bool) identity_files_LUT_Bool;\n        //Delegates of this passport and its contained identity files, able to control it too.\n        //Disabling this for now, we'll see if we can circumvent delegation functionality as defined in the CALYSPSO paper by Kokkoris-Kogias.\n        //address[] delegates;\n    }\n    \n    //The main database of our user IDs. This hashtable stores key-value pairs of\n    //address to (struct Passport) objects belonging to this smart contract's users.\n    //bytes32 because keccak256, through the web3 library, always produces 32 bytes (256 bits) of output.\n    //the public attribute just gives it an automatic getter. However, the getter only returns a tuple containing all atomic fields,\n    //and not the actual data structure.\n    mapping(address => Passport) public user_passports;\n    //And the associated lookup table, for quick O(1) lookup:\n    mapping(address => address) public user_passports_LUT;\n    \n    /* Debugging Events! Respect these, they'll save you headache(s) */\n    event PassportInitialized(address passport_id, address by);\n    event AddedIDFileToPassport(address passport_id, bytes32 hashed_file);\n    event Voted(address passport_id, address voter);\n    \n    /* Helper function to check if a user has initialized/created a Passport before */\n    function hasInitializedPassport(address addr) private view returns (bool) {\n        //All these checks cumulatively mean that a passport has been properly initialized\n        if(user_passports_LUT[addr] != address(0)){\n            Passport storage p = user_passports[addr];\n            \n            if(p.controller != address(0)){\n                return true;\n            }\n        }\n        return false;\n    }\n\n    function initPassport(string memory nickname) public returns (string memory, address) {\n        require(!(hasInitializedPassport(msg.sender)), \"Your User Passport is already initialized!\");\n        //As taken by the Solidity docs:\n        //We cannot use \"Passport[campaignID] = Passport(beneficiary, goal, 0, 0)\"\n        //because the RHS creates a memory-struct \"Passport\" that contains a mapping.\n        Passport storage p = user_passports[msg.sender];\n        \n        p.flair_name = nickname;\n        p.controller = msg.sender;\n        //Mark passport as initialized, and emit the event.\n        user_passports_LUT[msg.sender] = msg.sender;\n        \n        emit PassportInitialized(user_passports_LUT[msg.sender], msg.sender);\n        return (p.flair_name, p.controller);\n    }\n    \n    function addIDFileToPassport(address passport_id, bytes32 id_file) public returns (address, bytes32, uint) {\n        Passport storage p = user_passports[passport_id];\n        require(hasInitializedPassport(passport_id));\n        require(p.controller == msg.sender, \"Sender/controller mismatch when accessing passport\");\n        require(p.identity_files_LUT[id_file] == \"\", \"ID File is already contained in this Passport!\");\n        \n        p.identity_files_LUT[id_file] = id_file;\n        //trust-score == 1 means we've self-added this file and only us do trust it. In other words, this is a new, self-trusted-only doc.\n        //#TODO: There's probably a better way to do this other than using magic numbers...\n        p.identity_files[id_file] = 1;\n        //Return all these for debugging and testing purposes. It's a tuple of (controller_address, identity_file_byte32hash, trust_score).\n        emit AddedIDFileToPassport(passport_id, id_file);\n        return (p.controller, p.identity_files_LUT[id_file], p.identity_files[id_file]);\n    }\n    \n    //This function raises the trust score of a Passport, when a user vouches for it.\n    //Only users with already initiated Passports, and therefore active members of the community, can vouch for other people's Passports.\n    function voteForDocInPassport(address passport_id, bytes32 doc_id) public returns (address, bytes32, uint) {\n        require(PassportExists(passport_id), \"Passport_id does not exist!\");\n        require(passport_id != msg.sender, \"You can't vote on the trust score of your own Passport's documents!\");\n        Passport storage p = user_passports[passport_id];\n        require(DocExistsInPassport(p, doc_id), \"Document doesn't exist in specified Passport!\");\n        require(hasInitializedPassport(msg.sender), \"You have to have an active Passport yourself to vote on others!\");\n        //Everything ok, we found it. Raitse its score by 1.\n        p.identity_files[doc_id] = p.identity_files[doc_id] + 1;\n        return (passport_id, doc_id, p.identity_files[doc_id]);\n    }\n    \n    function PassportExists(address passport_id) private view returns (bool) {\n        if(user_passports_LUT[passport_id] == address(0)){\n            return false;\n        }\n        return true;\n    }\n    \n    function DocExistsInPassport(Passport storage P, bytes32 doc_id) private view returns (bool) {\n        if(P.identity_files_LUT[doc_id] == bytes32(0)){\n            return false;\n        }\n        return true;\n    }\n    \n    /* TODO 1: We need a voting function, to play with trust_scores of stored Passport documents */\n    /* DONE! */\n    /* TODO 2: We need a function to export DID documents and Verifiable Claims as per specification format. Possibly a view function, so it doesn't burn up gas */\n    /* TODO 3: We need some failsafe against Orphaned Passports... */\n    /* TODO 4: Currently, trust_scores of documents are handled like magic numbers. This is generally an anti-pattern, let's look into a better way of doing this. */ \n    /* TODO 5: The contract should maintain a list of Arbitrator addresses, for example Gnomon's address. Votes to documents from those addresses should give +100 score instead of just +1 */\n        /* This is as per the CALYPSO paper where the Trust Committee is maintained as a separate group, and votes from them are stronger */\n}\n",
  "sourcePath": "/home/dimitris/Documents/Code/Bluechain_SSI_Truffle/bluechain_ssi/contracts/PassportManager.sol",
  "compiler": {
    "name": "solc",
    "version": "0.8.2+commit.661d1103.Emscripten.clang"
  },
  "schemaVersion": "3.3.4",
  "updatedAt": "2021-05-12T21:27:25.809Z",
  "networkType": "ethereum",
  "devdoc": {
    "kind": "dev",
    "methods": {},
    "version": 1
  },
  "userdoc": {
    "kind": "user",
    "methods": {},
    "version": 1
  }
}